{
    "contractName": "HTRAXToken",
    "abi": [
        {
            "inputs": [],
            "stateMutability": "nonpayable",
            "type": "constructor"
        },
        {
            "anonymous": false,
            "inputs": [
                {
                    "indexed": false,
                    "internalType": "address",
                    "name": "_address",
                    "type": "address"
                }
            ],
            "name": "AddedBlackList",
            "type": "event"
        },
        {
            "anonymous": false,
            "inputs": [
                {
                    "indexed": true,
                    "internalType": "address",
                    "name": "owner",
                    "type": "address"
                },
                {
                    "indexed": true,
                    "internalType": "address",
                    "name": "spender",
                    "type": "address"
                },
                {
                    "indexed": false,
                    "internalType": "uint256",
                    "name": "value",
                    "type": "uint256"
                }
            ],
            "name": "Approval",
            "type": "event"
        },
        {
            "anonymous": false,
            "inputs": [
                {
                    "indexed": true,
                    "internalType": "address",
                    "name": "previousOwner",
                    "type": "address"
                },
                {
                    "indexed": true,
                    "internalType": "address",
                    "name": "newOwner",
                    "type": "address"
                }
            ],
            "name": "OwnershipTransferred",
            "type": "event"
        },
        {
            "anonymous": false,
            "inputs": [
                {
                    "indexed": false,
                    "internalType": "address",
                    "name": "account",
                    "type": "address"
                }
            ],
            "name": "Paused",
            "type": "event"
        },
        {
            "anonymous": false,
            "inputs": [
                {
                    "indexed": false,
                    "internalType": "address",
                    "name": "_address",
                    "type": "address"
                }
            ],
            "name": "RemovedBlackList",
            "type": "event"
        },
        {
            "anonymous": false,
            "inputs": [
                {
                    "indexed": true,
                    "internalType": "bytes32",
                    "name": "role",
                    "type": "bytes32"
                },
                {
                    "indexed": true,
                    "internalType": "bytes32",
                    "name": "previousAdminRole",
                    "type": "bytes32"
                },
                {
                    "indexed": true,
                    "internalType": "bytes32",
                    "name": "newAdminRole",
                    "type": "bytes32"
                }
            ],
            "name": "RoleAdminChanged",
            "type": "event"
        },
        {
            "anonymous": false,
            "inputs": [
                {
                    "indexed": true,
                    "internalType": "bytes32",
                    "name": "role",
                    "type": "bytes32"
                },
                {
                    "indexed": true,
                    "internalType": "address",
                    "name": "account",
                    "type": "address"
                },
                {
                    "indexed": true,
                    "internalType": "address",
                    "name": "sender",
                    "type": "address"
                }
            ],
            "name": "RoleGranted",
            "type": "event"
        },
        {
            "anonymous": false,
            "inputs": [
                {
                    "indexed": true,
                    "internalType": "bytes32",
                    "name": "role",
                    "type": "bytes32"
                },
                {
                    "indexed": true,
                    "internalType": "address",
                    "name": "account",
                    "type": "address"
                },
                {
                    "indexed": true,
                    "internalType": "address",
                    "name": "sender",
                    "type": "address"
                }
            ],
            "name": "RoleRevoked",
            "type": "event"
        },
        {
            "anonymous": false,
            "inputs": [
                {
                    "indexed": false,
                    "internalType": "uint256",
                    "name": "id",
                    "type": "uint256"
                }
            ],
            "name": "Snapshot",
            "type": "event"
        },
        {
            "anonymous": false,
            "inputs": [
                {
                    "indexed": true,
                    "internalType": "address",
                    "name": "from",
                    "type": "address"
                },
                {
                    "indexed": true,
                    "internalType": "address",
                    "name": "to",
                    "type": "address"
                },
                {
                    "indexed": false,
                    "internalType": "uint256",
                    "name": "value",
                    "type": "uint256"
                }
            ],
            "name": "Transfer",
            "type": "event"
        },
        {
            "anonymous": false,
            "inputs": [
                {
                    "indexed": false,
                    "internalType": "address",
                    "name": "account",
                    "type": "address"
                }
            ],
            "name": "Unpaused",
            "type": "event"
        },
        {
            "inputs": [],
            "name": "BURNER_ROLE",
            "outputs": [
                {
                    "internalType": "bytes32",
                    "name": "",
                    "type": "bytes32"
                }
            ],
            "stateMutability": "view",
            "type": "function"
        },
        {
            "inputs": [],
            "name": "CONTRACT_MANAGER_ROLE",
            "outputs": [
                {
                    "internalType": "bytes32",
                    "name": "",
                    "type": "bytes32"
                }
            ],
            "stateMutability": "view",
            "type": "function"
        },
        {
            "inputs": [],
            "name": "DEFAULT_ADMIN_ROLE",
            "outputs": [
                {
                    "internalType": "bytes32",
                    "name": "",
                    "type": "bytes32"
                }
            ],
            "stateMutability": "view",
            "type": "function"
        },
        {
            "inputs": [],
            "name": "EXECUTOR_ROLE",
            "outputs": [
                {
                    "internalType": "bytes32",
                    "name": "",
                    "type": "bytes32"
                }
            ],
            "stateMutability": "view",
            "type": "function"
        },
        {
            "inputs": [],
            "name": "MINTER_ROLE",
            "outputs": [
                {
                    "internalType": "bytes32",
                    "name": "",
                    "type": "bytes32"
                }
            ],
            "stateMutability": "view",
            "type": "function"
        },
        {
            "inputs": [],
            "name": "RISK_MANAGER_ROLE",
            "outputs": [
                {
                    "internalType": "bytes32",
                    "name": "",
                    "type": "bytes32"
                }
            ],
            "stateMutability": "view",
            "type": "function"
        },
        {
            "inputs": [
                {
                    "internalType": "address[]",
                    "name": "_address",
                    "type": "address[]"
                }
            ],
            "name": "addBlackList",
            "outputs": [],
            "stateMutability": "nonpayable",
            "type": "function"
        },
        {
            "inputs": [
                {
                    "internalType": "address",
                    "name": "owner",
                    "type": "address"
                },
                {
                    "internalType": "address",
                    "name": "spender",
                    "type": "address"
                }
            ],
            "name": "allowance",
            "outputs": [
                {
                    "internalType": "uint256",
                    "name": "",
                    "type": "uint256"
                }
            ],
            "stateMutability": "view",
            "type": "function"
        },
        {
            "inputs": [
                {
                    "internalType": "address",
                    "name": "spender",
                    "type": "address"
                },
                {
                    "internalType": "uint256",
                    "name": "amount",
                    "type": "uint256"
                }
            ],
            "name": "approve",
            "outputs": [
                {
                    "internalType": "bool",
                    "name": "",
                    "type": "bool"
                }
            ],
            "stateMutability": "nonpayable",
            "type": "function"
        },
        {
            "inputs": [
                {
                    "internalType": "address",
                    "name": "account",
                    "type": "address"
                }
            ],
            "name": "balanceOf",
            "outputs": [
                {
                    "internalType": "uint256",
                    "name": "",
                    "type": "uint256"
                }
            ],
            "stateMutability": "view",
            "type": "function"
        },
        {
            "inputs": [
                {
                    "internalType": "address",
                    "name": "account",
                    "type": "address"
                },
                {
                    "internalType": "uint256",
                    "name": "snapshotId",
                    "type": "uint256"
                }
            ],
            "name": "balanceOfAt",
            "outputs": [
                {
                    "internalType": "uint256",
                    "name": "",
                    "type": "uint256"
                }
            ],
            "stateMutability": "view",
            "type": "function"
        },
        {
            "inputs": [
                {
                    "internalType": "uint256",
                    "name": "amount",
                    "type": "uint256"
                }
            ],
            "name": "burn",
            "outputs": [],
            "stateMutability": "nonpayable",
            "type": "function"
        },
        {
            "inputs": [
                {
                    "internalType": "address",
                    "name": "account",
                    "type": "address"
                },
                {
                    "internalType": "uint256",
                    "name": "amount",
                    "type": "uint256"
                }
            ],
            "name": "burnFrom",
            "outputs": [],
            "stateMutability": "nonpayable",
            "type": "function"
        },
        {
            "inputs": [],
            "name": "cap",
            "outputs": [
                {
                    "internalType": "uint256",
                    "name": "",
                    "type": "uint256"
                }
            ],
            "stateMutability": "view",
            "type": "function"
        },
        {
            "inputs": [],
            "name": "decimals",
            "outputs": [
                {
                    "internalType": "uint8",
                    "name": "",
                    "type": "uint8"
                }
            ],
            "stateMutability": "view",
            "type": "function"
        },
        {
            "inputs": [
                {
                    "internalType": "address",
                    "name": "spender",
                    "type": "address"
                },
                {
                    "internalType": "uint256",
                    "name": "subtractedValue",
                    "type": "uint256"
                }
            ],
            "name": "decreaseAllowance",
            "outputs": [
                {
                    "internalType": "bool",
                    "name": "",
                    "type": "bool"
                }
            ],
            "stateMutability": "nonpayable",
            "type": "function"
        },
        {
            "inputs": [],
            "name": "disableTransactionLimit",
            "outputs": [],
            "stateMutability": "nonpayable",
            "type": "function"
        },
        {
            "inputs": [],
            "name": "enableTransactionLimit",
            "outputs": [],
            "stateMutability": "nonpayable",
            "type": "function"
        },
        {
            "inputs": [
                {
                    "internalType": "address",
                    "name": "account",
                    "type": "address"
                }
            ],
            "name": "getLockedBalanceLength",
            "outputs": [
                {
                    "internalType": "uint256",
                    "name": "",
                    "type": "uint256"
                }
            ],
            "stateMutability": "view",
            "type": "function"
        },
        {
            "inputs": [
                {
                    "internalType": "bytes32",
                    "name": "role",
                    "type": "bytes32"
                }
            ],
            "name": "getRoleAdmin",
            "outputs": [
                {
                    "internalType": "bytes32",
                    "name": "",
                    "type": "bytes32"
                }
            ],
            "stateMutability": "view",
            "type": "function"
        },
        {
            "inputs": [
                {
                    "internalType": "address",
                    "name": "account",
                    "type": "address"
                }
            ],
            "name": "getTotalLockedBalance",
            "outputs": [
                {
                    "internalType": "uint256",
                    "name": "",
                    "type": "uint256"
                }
            ],
            "stateMutability": "view",
            "type": "function"
        },
        {
            "inputs": [
                {
                    "internalType": "bytes32",
                    "name": "role",
                    "type": "bytes32"
                },
                {
                    "internalType": "address",
                    "name": "account",
                    "type": "address"
                }
            ],
            "name": "grantRole",
            "outputs": [],
            "stateMutability": "nonpayable",
            "type": "function"
        },
        {
            "inputs": [
                {
                    "internalType": "bytes32",
                    "name": "role",
                    "type": "bytes32"
                },
                {
                    "internalType": "address",
                    "name": "account",
                    "type": "address"
                }
            ],
            "name": "hasRole",
            "outputs": [
                {
                    "internalType": "bool",
                    "name": "",
                    "type": "bool"
                }
            ],
            "stateMutability": "view",
            "type": "function"
        },
        {
            "inputs": [
                {
                    "internalType": "address",
                    "name": "account",
                    "type": "address"
                }
            ],
            "name": "includeTransactionsWhiteList",
            "outputs": [],
            "stateMutability": "nonpayable",
            "type": "function"
        },
        {
            "inputs": [
                {
                    "internalType": "address",
                    "name": "spender",
                    "type": "address"
                },
                {
                    "internalType": "uint256",
                    "name": "addedValue",
                    "type": "uint256"
                }
            ],
            "name": "increaseAllowance",
            "outputs": [
                {
                    "internalType": "bool",
                    "name": "",
                    "type": "bool"
                }
            ],
            "stateMutability": "nonpayable",
            "type": "function"
        },
        {
            "inputs": [
                {
                    "internalType": "address",
                    "name": "",
                    "type": "address"
                }
            ],
            "name": "isBlackListed",
            "outputs": [
                {
                    "internalType": "bool",
                    "name": "",
                    "type": "bool"
                }
            ],
            "stateMutability": "view",
            "type": "function"
        },
        {
            "inputs": [
                {
                    "internalType": "address",
                    "name": "",
                    "type": "address"
                }
            ],
            "name": "lastTXBlock",
            "outputs": [
                {
                    "internalType": "uint256",
                    "name": "",
                    "type": "uint256"
                }
            ],
            "stateMutability": "view",
            "type": "function"
        },
        {
            "inputs": [],
            "name": "limitTransactions",
            "outputs": [
                {
                    "internalType": "bool",
                    "name": "",
                    "type": "bool"
                }
            ],
            "stateMutability": "view",
            "type": "function"
        },
        {
            "inputs": [
                {
                    "internalType": "address",
                    "name": "",
                    "type": "address"
                }
            ],
            "name": "limitTransactionsWhiteList",
            "outputs": [
                {
                    "internalType": "bool",
                    "name": "",
                    "type": "bool"
                }
            ],
            "stateMutability": "view",
            "type": "function"
        },
        {
            "inputs": [
                {
                    "internalType": "address",
                    "name": "account",
                    "type": "address"
                },
                {
                    "internalType": "uint256",
                    "name": "amount",
                    "type": "uint256"
                }
            ],
            "name": "mint",
            "outputs": [],
            "stateMutability": "nonpayable",
            "type": "function"
        },
        {
            "inputs": [],
            "name": "name",
            "outputs": [
                {
                    "internalType": "string",
                    "name": "",
                    "type": "string"
                }
            ],
            "stateMutability": "view",
            "type": "function"
        },
        {
            "inputs": [],
            "name": "owner",
            "outputs": [
                {
                    "internalType": "address",
                    "name": "",
                    "type": "address"
                }
            ],
            "stateMutability": "view",
            "type": "function"
        },
        {
            "inputs": [],
            "name": "pause",
            "outputs": [],
            "stateMutability": "nonpayable",
            "type": "function"
        },
        {
            "inputs": [],
            "name": "paused",
            "outputs": [
                {
                    "internalType": "bool",
                    "name": "",
                    "type": "bool"
                }
            ],
            "stateMutability": "view",
            "type": "function"
        },
        {
            "inputs": [
                {
                    "internalType": "address",
                    "name": "account",
                    "type": "address"
                }
            ],
            "name": "releaseLockedTokens",
            "outputs": [],
            "stateMutability": "nonpayable",
            "type": "function"
        },
        {
            "inputs": [
                {
                    "internalType": "address[]",
                    "name": "_address",
                    "type": "address[]"
                }
            ],
            "name": "removeBlackList",
            "outputs": [],
            "stateMutability": "nonpayable",
            "type": "function"
        },
        {
            "inputs": [
                {
                    "internalType": "address",
                    "name": "account",
                    "type": "address"
                }
            ],
            "name": "removeTransactionsWhiteList",
            "outputs": [],
            "stateMutability": "nonpayable",
            "type": "function"
        },
        {
            "inputs": [
                {
                    "internalType": "bytes32",
                    "name": "role",
                    "type": "bytes32"
                },
                {
                    "internalType": "address",
                    "name": "account",
                    "type": "address"
                }
            ],
            "name": "renounceRole",
            "outputs": [],
            "stateMutability": "nonpayable",
            "type": "function"
        },
        {
            "inputs": [
                {
                    "internalType": "bytes32",
                    "name": "role",
                    "type": "bytes32"
                },
                {
                    "internalType": "address",
                    "name": "account",
                    "type": "address"
                }
            ],
            "name": "revokeRole",
            "outputs": [],
            "stateMutability": "nonpayable",
            "type": "function"
        },
        {
            "inputs": [],
            "name": "snapshot",
            "outputs": [],
            "stateMutability": "nonpayable",
            "type": "function"
        },
        {
            "inputs": [
                {
                    "internalType": "bytes4",
                    "name": "interfaceId",
                    "type": "bytes4"
                }
            ],
            "name": "supportsInterface",
            "outputs": [
                {
                    "internalType": "bool",
                    "name": "",
                    "type": "bool"
                }
            ],
            "stateMutability": "view",
            "type": "function"
        },
        {
            "inputs": [],
            "name": "symbol",
            "outputs": [
                {
                    "internalType": "string",
                    "name": "",
                    "type": "string"
                }
            ],
            "stateMutability": "view",
            "type": "function"
        },
        {
            "inputs": [
                {
                    "internalType": "address",
                    "name": "",
                    "type": "address"
                },
                {
                    "internalType": "uint256",
                    "name": "",
                    "type": "uint256"
                }
            ],
            "name": "timeLocks",
            "outputs": [
                {
                    "internalType": "uint256",
                    "name": "totalAmount",
                    "type": "uint256"
                },
                {
                    "internalType": "uint256",
                    "name": "lockedAmount",
                    "type": "uint256"
                },
                {
                    "internalType": "uint128",
                    "name": "startDate",
                    "type": "uint128"
                },
                {
                    "internalType": "uint64",
                    "name": "timeInterval",
                    "type": "uint64"
                },
                {
                    "internalType": "uint256",
                    "name": "tokenRelease",
                    "type": "uint256"
                }
            ],
            "stateMutability": "view",
            "type": "function"
        },
        {
            "inputs": [],
            "name": "totalSupply",
            "outputs": [
                {
                    "internalType": "uint256",
                    "name": "",
                    "type": "uint256"
                }
            ],
            "stateMutability": "view",
            "type": "function"
        },
        {
            "inputs": [
                {
                    "internalType": "uint256",
                    "name": "snapshotId",
                    "type": "uint256"
                }
            ],
            "name": "totalSupplyAt",
            "outputs": [
                {
                    "internalType": "uint256",
                    "name": "",
                    "type": "uint256"
                }
            ],
            "stateMutability": "view",
            "type": "function"
        },
        {
            "inputs": [
                {
                    "internalType": "address",
                    "name": "recipient",
                    "type": "address"
                },
                {
                    "internalType": "uint256",
                    "name": "amount",
                    "type": "uint256"
                }
            ],
            "name": "transfer",
            "outputs": [
                {
                    "internalType": "bool",
                    "name": "",
                    "type": "bool"
                }
            ],
            "stateMutability": "nonpayable",
            "type": "function"
        },
        {
            "inputs": [
                {
                    "internalType": "address",
                    "name": "sender",
                    "type": "address"
                },
                {
                    "internalType": "address",
                    "name": "recipient",
                    "type": "address"
                },
                {
                    "internalType": "uint256",
                    "name": "amount",
                    "type": "uint256"
                }
            ],
            "name": "transferFrom",
            "outputs": [
                {
                    "internalType": "bool",
                    "name": "",
                    "type": "bool"
                }
            ],
            "stateMutability": "nonpayable",
            "type": "function"
        },
        {
            "inputs": [
                {
                    "internalType": "address",
                    "name": "recipient",
                    "type": "address"
                },
                {
                    "internalType": "uint256",
                    "name": "totalAmount",
                    "type": "uint256"
                },
                {
                    "internalType": "uint256",
                    "name": "lockedAmount",
                    "type": "uint256"
                },
                {
                    "internalType": "uint128",
                    "name": "startDate",
                    "type": "uint128"
                },
                {
                    "internalType": "uint64",
                    "name": "timeInterval",
                    "type": "uint64"
                },
                {
                    "internalType": "uint256",
                    "name": "tokenRelease",
                    "type": "uint256"
                }
            ],
            "name": "transferLockedTokens",
            "outputs": [],
            "stateMutability": "nonpayable",
            "type": "function"
        },
        {
            "inputs": [
                {
                    "internalType": "address",
                    "name": "newOwner",
                    "type": "address"
                }
            ],
            "name": "transferOwnership",
            "outputs": [],
            "stateMutability": "nonpayable",
            "type": "function"
        },
        {
            "inputs": [],
            "name": "unpause",
            "outputs": [],
            "stateMutability": "nonpayable",
            "type": "function"
        }
    ],
    "bytecode": "60a0604052620000126012600a62000988565b620000229063165a0bc06200099d565b60805260408051808201909152600580825264090a8a482b60db1b60209092019182526200005391600b91620007cf565b5060408051808201909152600b8082526a242a2920ac102a37b5b2b760a91b60209092019182526200008891600c91620007cf565b503480156200009657600080fd5b50600c8054620000a690620009bf565b80601f0160208091040260200160405190810160405280929190818152602001828054620000d490620009bf565b8015620001255780601f10620000f95761010080835404028352916020019162000125565b820191906000526020600020905b8154815290600101906020018083116200010757829003601f168201915b5050505050600b80546200013990620009bf565b80601f01602080910402602001604051908101604052809291908181526020018280546200016790620009bf565b8015620001b85780601f106200018c57610100808354040283529160200191620001b8565b820191906000526020600020905b8154815290600101906020018083116200019a57829003601f168201915b50508451620001d2935060039250602086019150620007cf565b508051620001e8906004906020840190620007cf565b5050506000620001fd6200029460201b60201c565b600980546001600160a01b0319166001600160a01b038316908117909155604051919250906000907f8be0079c531659141344cd1fd0a4f28419497f9722a3daafe3b4186f6b6457e0908290a3506009805460ff60a01b191690556200026560003362000298565b6200028e33620002786012600a62000988565b620002889063059682f06200099d565b620002a8565b62000a47565b3390565b620002a482826200039f565b5050565b6001600160a01b038216620003045760405162461bcd60e51b815260206004820152601f60248201527f45524332303a206d696e7420746f20746865207a65726f20616464726573730060448201526064015b60405180910390fd5b620003126000838362000429565b8060026000828254620003269190620009fc565b90915550506001600160a01b0382166000908152602081905260408120805483929062000355908490620009fc565b90915550506040518181526001600160a01b038316906000907fddf252ad1be2c89b69c2b068fc378daa952ba7f163c4a11628f55a4df523b3ef9060200160405180910390a35050565b620003ab8282620005d6565b620002a4576000828152600a602090815260408083206001600160a01b03851684529091529020805460ff19166001179055620003e53390565b6001600160a01b0316816001600160a01b0316837f2f8788117e7eff1d82e926ec794901d17c78024a50270940304540a733656f0d60405160405180910390a45050565b6200043d600954600160a01b900460ff1690565b156200047f5760405162461bcd60e51b815260206004820152601060248201526f14185d5cd8589b194e881c185d5cd95960821b6044820152606401620002fb565b6001600160a01b03831660009081526010602052604090205460ff1615620004ea5760405162461bcd60e51b815260206004820152601560248201527f5472616e7366657273206e6f7420616c6c6f77656400000000000000000000006044820152606401620002fb565b6001600160a01b03821660009081526010602052604090205460ff1615620005555760405162461bcd60e51b815260206004820152601560248201527f5472616e7366657273206e6f7420616c6c6f77656400000000000000000000006044820152606401620002fb565b6200055f62000603565b620005b95760405162461bcd60e51b8152602060048201526024808201527f5472616e736665727320617265206c696d6974656420746f20312070657220626044820152636c6f636b60e01b6064820152608401620002fb565b620005d18383836200067560201b620018cd1760201c565b505050565b6000828152600a602090815260408083206001600160a01b038516845290915290205460ff165b92915050565b600d5460009060ff1615156001148015620006335750336000908152600e602052604090205460ff161515600114155b156200066f57336000908152600f6020526040902054431415620006575750600090565b50336000908152600f60205260409020439055600190565b50600190565b6200068d838383620005d160201b620009ee1760201c565b6001600160a01b038316620006b157620006a782620006dc565b620005d162000714565b6001600160a01b038216620006cb57620006a783620006dc565b620006d683620006dc565b620005d1825b6001600160a01b0381166000908152600560209081526040808320918390529091205462000711919062000726565b62000726565b50565b6200072460066200070b60025490565b565b60006200073f60086200078260201b620019151760201c565b9050806200074d8462000786565b1015620005d1578254600180820185556000858152602080822090930193909355938401805494850181558252902090910155565b5490565b80546000906200079857506000919050565b81548290620007aa9060019062000a17565b81548110620007bd57620007bd62000a31565b90600052602060002001549050919050565b828054620007dd90620009bf565b90600052602060002090601f0160209004810192826200080157600085556200084c565b82601f106200081c57805160ff19168380011785556200084c565b828001600101855582156200084c579182015b828111156200084c5782518255916020019190600101906200082f565b506200085a9291506200085e565b5090565b5b808211156200085a57600081556001016200085f565b634e487b7160e01b600052601160045260246000fd5b600181815b80851115620008cc578160001904821115620008b057620008b062000875565b80851615620008be57918102915b93841c939080029062000890565b509250929050565b600082620008e557506001620005fd565b81620008f457506000620005fd565b81600181146200090d5760028114620009185762000938565b6001915050620005fd565b60ff8411156200092c576200092c62000875565b50506001821b620005fd565b5060208310610133831016604e8410600b84101617156200095d575081810a620005fd565b6200096983836200088b565b806000190482111562000980576200098062000875565b029392505050565b6000620009968383620008d4565b9392505050565b6000816000190483118215151615620009ba57620009ba62000875565b500290565b600181811c90821680620009d457607f821691505b60208210811415620009f657634e487b7160e01b600052602260045260246000fd5b50919050565b6000821982111562000a125762000a1262000875565b500190565b60008282101562000a2c5762000a2c62000875565b500390565b634e487b7160e01b600052603260045260246000fd5b608051612cfe62000a6a600039600081816104500152610b470152612cfe6000f3fe608060405234801561001057600080fd5b50600436106102d65760003560e01c80638456cb5911610182578063a7411c92116100e9578063d338faf3116100a2578063dd62ed3e1161007c578063dd62ed3e146106fc578063e47d606014610735578063f1001f8c14610758578063f2fde38b1461076b57600080fd5b8063d338faf3146106af578063d5391393146106c2578063d547741f146106e957600080fd5b8063a7411c9214610629578063a760280c14610649578063a9059cbb1461065e578063abc9acb714610671578063b75d414514610684578063d0ab8e731461068c57600080fd5b8063981b24d01161013b578063981b24d0146105cb5780639bf41135146105de5780639d28b506146105f1578063a217fddf14610606578063a457c2d71461060e578063a4d98fa51461062157600080fd5b80638456cb59146105785780638b811719146105805780638da5cb5b1461058d57806391d14854146105a857806395d89b41146105bb5780639711715a146105c357600080fd5b8063355274ea116102415780634cf27ce0116101fa5780635cbee9ba116101d45780635cbee9ba1461050057806370a08231146105135780637945e04d1461053c57806379cc67901461056557600080fd5b80634cf27ce0146104c85780634ee2cd7e146104db5780635c975abb146104ee57600080fd5b8063355274ea1461044e57806336568abe1461047457806339509351146104875780633f4ba83a1461049a57806340c10f19146104a257806342966c68146104b557600080fd5b806323b872dd1161029357806323b872dd1461037d578063248a9ca314610390578063282c51f3146103b35780632c479711146103da5780632f2ff15d1461042c578063313ce5671461043f57600080fd5b806301ffc9a7146102db57806302b63a001461030357806306fdde031461031857806307bd02651461032d578063095ea7b31461036257806318160ddd14610375575b600080fd5b6102ee6102e9366004612799565b61077e565b60405190151581526020015b60405180910390f35b6103166103113660046127da565b6107b5565b005b610320610813565b6040516102fa9190612821565b6103547fd8aa0f3194971a2a116679f7c2090f6939c8d4e01a2a8d7e41d55e5351469e6381565b6040519081526020016102fa565b6102ee610370366004612854565b6108a5565b600254610354565b6102ee61038b36600461287e565b6108bb565b61035461039e3660046128ba565b6000908152600a602052604090206001015490565b6103547f3c11d16cbaffd01df69ce1c404f6340ee057498f5f00246190ea54220576a84881565b6103ed6103e8366004612854565b610965565b6040805195865260208601949094526001600160801b039092169284019290925267ffffffffffffffff9091166060830152608082015260a0016102fa565b61031661043a3660046128d3565b6109c8565b604051601281526020016102fa565b7f0000000000000000000000000000000000000000000000000000000000000000610354565b6103166104823660046128d3565b6109f3565b6102ee610495366004612854565b610a71565b610316610aad565b6103166104b0366004612854565b610aeb565b6103166104c33660046128ba565b610bc1565b6103166104d63660046128ff565b610c3d565b6103546104e9366004612854565b610d73565b600954600160a01b900460ff166102ee565b61031661050e3660046127da565b610dcc565b6103546105213660046127da565b6001600160a01b031660009081526020819052604090205490565b61035461054a3660046127da565b6001600160a01b031660009081526011602052604090205490565b610316610573366004612854565b61101e565b610316611110565b600d546102ee9060ff1681565b6009546040516001600160a01b0390911681526020016102fa565b6102ee6105b63660046128d3565b61114c565b610320611177565b610316611186565b6103546105d93660046128ba565b6111c2565b6103166105ec366004612993565b6111ed565b610354600080516020612ca983398151915281565b610354600081565b6102ee61061c366004612854565b611338565b6103166113d1565b6103546106373660046127da565b600f6020526000908152604090205481565b610354600080516020612c8983398151915281565b6102ee61066c366004612854565b611414565b61031661067f3660046127da565b611421565b610316611479565b6102ee61069a3660046127da565b600e6020526000908152604090205460ff1681565b6103166106bd366004612993565b6114b9565b6103547f9f2df0fed2c77648de5860a4cc508cd0818c85b8b8a1ab4ceeef8d981c8956a681565b6103166106f73660046128d3565b611705565b61035461070a366004612a58565b6001600160a01b03918216600090815260016020908152604080832093909416825291909152205490565b6102ee6107433660046127da565b60106020526000908152604090205460ff1681565b6103546107663660046127da565b61172b565b6103166107793660046127da565b6117b2565b60006001600160e01b03198216637965db0b60e01b14806107af57506301ffc9a760e01b6001600160e01b03198316145b92915050565b6107cd600080516020612ca98339815191523361114c565b6107f25760405162461bcd60e51b81526004016107e990612a82565b60405180910390fd5b6001600160a01b03166000908152600e60205260409020805460ff19169055565b60606003805461082290612ab7565b80601f016020809104026020016040519081016040528092919081815260200182805461084e90612ab7565b801561089b5780601f106108705761010080835404028352916020019161089b565b820191906000526020600020905b81548152906001019060200180831161087e57829003601f168201915b5050505050905090565b60006108b2338484611919565b50600192915050565b60006108c8848484611a3d565b6001600160a01b03841660009081526001602090815260408083203384529091529020548281101561094d5760405162461bcd60e51b815260206004820152602860248201527f45524332303a207472616e7366657220616d6f756e74206578636565647320616044820152676c6c6f77616e636560c01b60648201526084016107e9565b61095a8533858403611919565b506001949350505050565b6011602052816000526040600020818154811061098157600080fd5b6000918252602090912060049091020180546001820154600283015460039093015491945092506001600160801b03821691600160801b900467ffffffffffffffff169085565b6000828152600a60205260409020600101546109e48133611c18565b6109ee8383611c7c565b505050565b6001600160a01b0381163314610a635760405162461bcd60e51b815260206004820152602f60248201527f416363657373436f6e74726f6c3a2063616e206f6e6c792072656e6f756e636560448201526e103937b632b9903337b91039b2b63360891b60648201526084016107e9565b610a6d8282611d02565b5050565b3360008181526001602090815260408083206001600160a01b038716845290915281205490916108b2918590610aa8908690612b08565b611919565b610ac5600080516020612c898339815191523361114c565b610ae15760405162461bcd60e51b81526004016107e990612b20565b610ae9611d69565b565b6009546001600160a01b03163314610b455760405162461bcd60e51b815260206004820181905260248201527f4f776e61626c653a2063616c6c6572206973206e6f7420746865206f776e657260448201526064016107e9565b7f000000000000000000000000000000000000000000000000000000000000000081610b7060025490565b610b7a9190612b08565b1115610bb75760405162461bcd60e51b815260206004820152600c60248201526b18d85c08195e18d95959195960a21b60448201526064016107e9565b610a6d8282611e06565b610beb7f3c11d16cbaffd01df69ce1c404f6340ee057498f5f00246190ea54220576a8483361114c565b610c305760405162461bcd60e51b815260206004820152601660248201527521b0b63632b91034b9903737ba103090313ab93732b960511b60448201526064016107e9565b610c3a3382611ef1565b50565b610c677fd8aa0f3194971a2a116679f7c2090f6939c8d4e01a2a8d7e41d55e5351469e633361114c565b610cb35760405162461bcd60e51b815260206004820152601860248201527f43616c6c6572206973206e6f742061206578656375746f72000000000000000060448201526064016107e9565b6001600160a01b0386166000908152601160209081526040808320815160a0810183528981528084018981526001600160801b03808a1694830194855267ffffffffffffffff808a1660608501908152608085018a8152865460018181018955978b52989099209451600490980290940196875591519386019390935592516002850180549251909416600160801b026001600160c01b03199092169216919091171790559051600390910155610d6a8686611414565b50505050505050565b6001600160a01b038216600090815260056020526040812081908190610d9a90859061204b565b9150915081610dc1576001600160a01b038516600090815260208190526040902054610dc3565b805b95945050505050565b60005b6001600160a01b038216600090815260116020526040902054811015610a6d576001600160a01b0382166000908152601160205260408120805483908110610e1957610e19612b57565b6000918252602090912060026004909202010154610e40906001600160801b031642612b6d565b6001600160a01b03841660009081526011602052604081208054929350909184908110610e6f57610e6f612b57565b6000918252602090912060049091020160020154610e9e90600160801b900467ffffffffffffffff1683612b9a565b905060008160116000876001600160a01b03166001600160a01b031681526020019081526020016000208581548110610ed957610ed9612b57565b906000526020600020906004020160030154610ef59190612bae565b6001600160a01b038616600090815260116020526040902080549192509085908110610f2357610f23612b57565b9060005260206000209060040201600001548110610f7f576001600160a01b0385166000908152601160205260408120805486908110610f6557610f65612b57565b906000526020600020906004020160010181905550611008565b6001600160a01b0385166000908152601160205260409020805482919086908110610fac57610fac612b57565b906000526020600020906004020160000154610fc89190612b6d565b6001600160a01b0386166000908152601160205260409020805486908110610ff257610ff2612b57565b9060005260206000209060040201600101819055505b505050808061101690612bcd565b915050610dcf565b6110487f3c11d16cbaffd01df69ce1c404f6340ee057498f5f00246190ea54220576a8483361114c565b61108d5760405162461bcd60e51b815260206004820152601660248201527521b0b63632b91034b9903737ba103090313ab93732b960511b60448201526064016107e9565b6000611099833361070a565b9050818110156110f75760405162461bcd60e51b8152602060048201526024808201527f45524332303a206275726e20616d6f756e74206578636565647320616c6c6f77604482015263616e636560e01b60648201526084016107e9565b6111068333610aa88585612b6d565b6109ee8383611ef1565b611128600080516020612c898339815191523361114c565b6111445760405162461bcd60e51b81526004016107e990612b20565b610ae961213d565b6000918252600a602090815260408084206001600160a01b0393909316845291905290205460ff1690565b60606004805461082290612ab7565b61119e600080516020612c898339815191523361114c565b6111ba5760405162461bcd60e51b81526004016107e990612b20565b610c3a6121c5565b60008060006111d284600661204b565b91509150816111e3576002546111e5565b805b949350505050565b611205600080516020612c898339815191523361114c565b6112215760405162461bcd60e51b81526004016107e990612b20565b60005b8151811015610a6d576010600083838151811061124357611243612b57565b6020908102919091018101516001600160a01b031682528101919091526040016000205460ff16156113265760006010600084848151811061128757611287612b57565b60200260200101516001600160a01b03166001600160a01b0316815260200190815260200160002060006101000a81548160ff0219169083151502179055507fd7e9ec6e6ecd65492dce6bf513cd6867560d49544421d0783ddf06e76c24470c8282815181106112f9576112f9612b57565b602002602001015160405161131d91906001600160a01b0391909116815260200190565b60405180910390a15b8061133081612bcd565b915050611224565b3360009081526001602090815260408083206001600160a01b0386168452909152812054828110156113ba5760405162461bcd60e51b815260206004820152602560248201527f45524332303a2064656372656173656420616c6c6f77616e63652062656c6f77604482015264207a65726f60d81b60648201526084016107e9565b6113c73385858403611919565b5060019392505050565b6113e9600080516020612ca98339815191523361114c565b6114055760405162461bcd60e51b81526004016107e990612a82565b600d805460ff19166001179055565b60006108b2338484611a3d565b611439600080516020612ca98339815191523361114c565b6114555760405162461bcd60e51b81526004016107e990612a82565b6001600160a01b03166000908152600e60205260409020805460ff19166001179055565b611491600080516020612ca98339815191523361114c565b6114ad5760405162461bcd60e51b81526004016107e990612a82565b600d805460ff19169055565b6114d1600080516020612c898339815191523361114c565b6114ed5760405162461bcd60e51b81526004016107e990612b20565b60005b8151811015610a6d5760006001600160a01b031682828151811061151657611516612b57565b60200260200101516001600160a01b031614156115755760405162461bcd60e51b815260206004820152601860248201527f546865206164647265737320697320616464726573732030000000000000000060448201526064016107e9565b6009546001600160a01b03166001600160a01b031682828151811061159c5761159c612b57565b60200260200101516001600160a01b031614156115fb5760405162461bcd60e51b815260206004820152601860248201527f546865206164647265737320697320746865206f776e6572000000000000000060448201526064016107e9565b6010600083838151811061161157611611612b57565b6020908102919091018101516001600160a01b031682528101919091526040016000205460ff166116f35760016010600084848151811061165457611654612b57565b60200260200101516001600160a01b03166001600160a01b0316815260200190815260200160002060006101000a81548160ff0219169083151502179055507f42e160154868087d6bfdc0ca23d96a1c1cfa32f1b72ba9ba27b69b98a0d819dc8282815181106116c6576116c6612b57565b60200260200101516040516116ea91906001600160a01b0391909116815260200190565b60405180910390a15b806116fd81612bcd565b9150506114f0565b6000828152600a60205260409020600101546117218133611c18565b6109ee8383611d02565b600080805b6001600160a01b0384166000908152601160205260409020548110156117ab576001600160a01b038416600090815260116020526040902080548290811061177a5761177a612b57565b906000526020600020906004020160010154826117979190612b08565b9150806117a381612bcd565b915050611730565b5092915050565b6009546001600160a01b0316331461180c5760405162461bcd60e51b815260206004820181905260248201527f4f776e61626c653a2063616c6c6572206973206e6f7420746865206f776e657260448201526064016107e9565b6001600160a01b0381166118715760405162461bcd60e51b815260206004820152602660248201527f4f776e61626c653a206e6577206f776e657220697320746865207a65726f206160448201526564647265737360d01b60648201526084016107e9565b6009546040516001600160a01b038084169216907f8be0079c531659141344cd1fd0a4f28419497f9722a3daafe3b4186f6b6457e090600090a3600980546001600160a01b0319166001600160a01b0392909216919091179055565b6001600160a01b0383166118ec576118e482612220565b6109ee612252565b6001600160a01b038216611903576118e483612220565b61190c83612220565b6109ee82612220565b5490565b6001600160a01b03831661197b5760405162461bcd60e51b8152602060048201526024808201527f45524332303a20617070726f76652066726f6d20746865207a65726f206164646044820152637265737360e01b60648201526084016107e9565b6001600160a01b0382166119dc5760405162461bcd60e51b815260206004820152602260248201527f45524332303a20617070726f766520746f20746865207a65726f206164647265604482015261737360f01b60648201526084016107e9565b6001600160a01b0383811660008181526001602090815260408083209487168084529482529182902085905590518481527f8c5be1e5ebec7d5bd14f71427d1e84f3dd0314c0f7b2291e5b200ac8c7c3b925910160405180910390a3505050565b6001600160a01b038316611aa15760405162461bcd60e51b815260206004820152602560248201527f45524332303a207472616e736665722066726f6d20746865207a65726f206164604482015264647265737360d81b60648201526084016107e9565b6001600160a01b038216611b035760405162461bcd60e51b815260206004820152602360248201527f45524332303a207472616e7366657220746f20746865207a65726f206164647260448201526265737360e81b60648201526084016107e9565b611b0e838383612260565b6001600160a01b03831660009081526020819052604090205481811015611b865760405162461bcd60e51b815260206004820152602660248201527f45524332303a207472616e7366657220616d6f756e7420657863656564732062604482015265616c616e636560d01b60648201526084016107e9565b6001600160a01b03808516600090815260208190526040808220858503905591851681529081208054849290611bbd908490612b08565b92505081905550826001600160a01b0316846001600160a01b03167fddf252ad1be2c89b69c2b068fc378daa952ba7f163c4a11628f55a4df523b3ef84604051611c0991815260200190565b60405180910390a35b50505050565b611c22828261114c565b610a6d57611c3a816001600160a01b031660146123da565b611c458360206123da565b604051602001611c56929190612be8565b60408051601f198184030181529082905262461bcd60e51b82526107e991600401612821565b611c86828261114c565b610a6d576000828152600a602090815260408083206001600160a01b03851684529091529020805460ff19166001179055611cbe3390565b6001600160a01b0316816001600160a01b0316837f2f8788117e7eff1d82e926ec794901d17c78024a50270940304540a733656f0d60405160405180910390a45050565b611d0c828261114c565b15610a6d576000828152600a602090815260408083206001600160a01b0385168085529252808320805460ff1916905551339285917ff6391f5c32d9c69d2a47ea670b442974b53935d1edc7fd64eb21e047a839171b9190a45050565b600954600160a01b900460ff16611db95760405162461bcd60e51b815260206004820152601460248201527314185d5cd8589b194e881b9bdd081c185d5cd95960621b60448201526064016107e9565b6009805460ff60a01b191690557f5db9ee0a495bf2e6ff9c91a7834c1ba4fdd244a5e8aa4e537bd38aeae4b073aa335b6040516001600160a01b03909116815260200160405180910390a1565b6001600160a01b038216611e5c5760405162461bcd60e51b815260206004820152601f60248201527f45524332303a206d696e7420746f20746865207a65726f20616464726573730060448201526064016107e9565b611e6860008383612260565b8060026000828254611e7a9190612b08565b90915550506001600160a01b03821660009081526020819052604081208054839290611ea7908490612b08565b90915550506040518181526001600160a01b038316906000907fddf252ad1be2c89b69c2b068fc378daa952ba7f163c4a11628f55a4df523b3ef9060200160405180910390a35050565b6001600160a01b038216611f515760405162461bcd60e51b815260206004820152602160248201527f45524332303a206275726e2066726f6d20746865207a65726f206164647265736044820152607360f81b60648201526084016107e9565b611f5d82600083612260565b6001600160a01b03821660009081526020819052604090205481811015611fd15760405162461bcd60e51b815260206004820152602260248201527f45524332303a206275726e20616d6f756e7420657863656564732062616c616e604482015261636560f01b60648201526084016107e9565b6001600160a01b0383166000908152602081905260408120838303905560028054849290612000908490612b6d565b90915550506040518281526000906001600160a01b038516907fddf252ad1be2c89b69c2b068fc378daa952ba7f163c4a11628f55a4df523b3ef9060200160405180910390a3505050565b600080600084116120975760405162461bcd60e51b815260206004820152601660248201527504552433230536e617073686f743a20696420697320360541b60448201526064016107e9565b6008548411156120e95760405162461bcd60e51b815260206004820152601d60248201527f4552433230536e617073686f743a206e6f6e6578697374656e7420696400000060448201526064016107e9565b60006120f5848661257d565b845490915081141561210e576000809250925050612136565b600184600101828154811061212557612125612b57565b906000526020600020015492509250505b9250929050565b600954600160a01b900460ff161561218a5760405162461bcd60e51b815260206004820152601060248201526f14185d5cd8589b194e881c185d5cd95960821b60448201526064016107e9565b6009805460ff60a01b1916600160a01b1790557f62e78cea01bee320cd4e420270b5ea74000d11b0c9f74754ebdbfc544b05a258611de93390565b60006121d5600880546001019055565b60006121e060085490565b90507f8030e83b04d87bef53480e26263266d6ca66863aa8506aca6f2559d18aa1cb678160405161221391815260200190565b60405180910390a1919050565b6001600160a01b03811660009081526005602090815260408083209183905290912054610c3a9190612640565b612640565b610ae9600661224d60025490565b600954600160a01b900460ff16156122ad5760405162461bcd60e51b815260206004820152601060248201526f14185d5cd8589b194e881c185d5cd95960821b60448201526064016107e9565b6001600160a01b03831660009081526010602052604090205460ff161561230e5760405162461bcd60e51b8152602060048201526015602482015274151c985b9cd9995c9cc81b9bdd08185b1b1bddd959605a1b60448201526064016107e9565b6001600160a01b03821660009081526010602052604090205460ff161561236f5760405162461bcd60e51b8152602060048201526015602482015274151c985b9cd9995c9cc81b9bdd08185b1b1bddd959605a1b60448201526064016107e9565b61237761268b565b6123cf5760405162461bcd60e51b8152602060048201526024808201527f5472616e736665727320617265206c696d6974656420746f20312070657220626044820152636c6f636b60e01b60648201526084016107e9565b6109ee8383836118cd565b606060006123e9836002612bae565b6123f4906002612b08565b67ffffffffffffffff81111561240c5761240c61297d565b6040519080825280601f01601f191660200182016040528015612436576020820181803683370190505b509050600360fc1b8160008151811061245157612451612b57565b60200101906001600160f81b031916908160001a905350600f60fb1b8160018151811061248057612480612b57565b60200101906001600160f81b031916908160001a90535060006124a4846002612bae565b6124af906001612b08565b90505b6001811115612527576f181899199a1a9b1b9c1cb0b131b232b360811b85600f16601081106124e3576124e3612b57565b1a60f81b8282815181106124f9576124f9612b57565b60200101906001600160f81b031916908160001a90535060049490941c9361252081612c5d565b90506124b2565b5083156125765760405162461bcd60e51b815260206004820181905260248201527f537472696e67733a20686578206c656e67746820696e73756666696369656e7460448201526064016107e9565b9392505050565b815460009061258e575060006107af565b82546000905b808210156125ea5760006125a883836126fa565b9050848682815481106125bd576125bd612b57565b906000526020600020015411156125d6578091506125e4565b6125e1816001612b08565b92505b50612594565b60008211801561261f57508385612602600185612b6d565b8154811061261257612612612b57565b9060005260206000200154145b156126385761262f600183612b6d565b925050506107af565b5090506107af565b600061264b60085490565b90508061265784612751565b10156109ee578254600180820185556000858152602080822090930193909355938401805494850181558252902090910155565b600d5460009060ff16151560011480156126ba5750336000908152600e602052604090205460ff161515600114155b156126f457336000908152600f60205260409020544314156126dc5750600090565b50336000908152600f60205260409020439055600190565b50600190565b600060026127088184612c74565b612713600286612c74565b61271d9190612b08565b6127279190612b9a565b612732600284612b9a565b61273d600286612b9a565b6127479190612b08565b6125769190612b08565b805460009061276257506000919050565b8154829061277290600190612b6d565b8154811061278257612782612b57565b90600052602060002001549050919050565b919050565b6000602082840312156127ab57600080fd5b81356001600160e01b03198116811461257657600080fd5b80356001600160a01b038116811461279457600080fd5b6000602082840312156127ec57600080fd5b612576826127c3565b60005b838110156128105781810151838201526020016127f8565b83811115611c125750506000910152565b60208152600082518060208401526128408160408501602087016127f5565b601f01601f19169190910160400192915050565b6000806040838503121561286757600080fd5b612870836127c3565b946020939093013593505050565b60008060006060848603121561289357600080fd5b61289c846127c3565b92506128aa602085016127c3565b9150604084013590509250925092565b6000602082840312156128cc57600080fd5b5035919050565b600080604083850312156128e657600080fd5b823591506128f6602084016127c3565b90509250929050565b60008060008060008060c0878903121561291857600080fd5b612921876127c3565b9550602087013594506040870135935060608701356001600160801b038116811461294b57600080fd5b9250608087013567ffffffffffffffff8116811461296857600080fd5b8092505060a087013590509295509295509295565b634e487b7160e01b600052604160045260246000fd5b600060208083850312156129a657600080fd5b823567ffffffffffffffff808211156129be57600080fd5b818501915085601f8301126129d257600080fd5b8135818111156129e4576129e461297d565b8060051b604051601f19603f83011681018181108582111715612a0957612a0961297d565b604052918252848201925083810185019188831115612a2757600080fd5b938501935b82851015612a4c57612a3d856127c3565b84529385019392850192612a2c565b98975050505050505050565b60008060408385031215612a6b57600080fd5b612a74836127c3565b91506128f6602084016127c3565b6020808252818101527f43616c6c6572206973206e6f74206120636f6e7472616374206d616e61676572604082015260600190565b600181811c90821680612acb57607f821691505b60208210811415612aec57634e487b7160e01b600052602260045260246000fd5b50919050565b634e487b7160e01b600052601160045260246000fd5b60008219821115612b1b57612b1b612af2565b500190565b6020808252601c908201527f43616c6c6572206973206e6f742061207269736b206d616e6167657200000000604082015260600190565b634e487b7160e01b600052603260045260246000fd5b600082821015612b7f57612b7f612af2565b500390565b634e487b7160e01b600052601260045260246000fd5b600082612ba957612ba9612b84565b500490565b6000816000190483118215151615612bc857612bc8612af2565b500290565b6000600019821415612be157612be1612af2565b5060010190565b7f416363657373436f6e74726f6c3a206163636f756e7420000000000000000000815260008351612c208160178501602088016127f5565b7001034b99036b4b9b9b4b733903937b6329607d1b6017918401918201528351612c518160288401602088016127f5565b01602801949350505050565b600081612c6c57612c6c612af2565b506000190190565b600082612c8357612c83612b84565b50069056feb2e3ee861706f0756afea8a5257301f83561f9ac10b8f43b771dc928566f8c618135f02737a6b32709c1f229001b55183df0d6abcb3022e8bae091ad43fd9e6da26469706673582212206d35f5bc60d3b1886d3a32985c9e9dc1bd90d00cdc117492e353e8ea49cda7bf64736f6c63430008090033",
    "sourcePath": "c:/Projects/H-Trax/htrax-token-testnet/contracts/HTRAXToken.sol",
    "compiler": {
        "name": "solc",
        "version": "0.8.9+commit.e5eed63a"
    },
    "functionHashes": {
        "BURNER_ROLE()": "282c51f3",
        "CONTRACT_MANAGER_ROLE()": "9d28b506",
        "DEFAULT_ADMIN_ROLE()": "a217fddf",
        "EXECUTOR_ROLE()": "07bd0265",
        "MINTER_ROLE()": "d5391393",
        "RISK_MANAGER_ROLE()": "a760280c",
        "addBlackList(address[])": "d338faf3",
        "allowance(address,address)": "dd62ed3e",
        "approve(address,uint256)": "095ea7b3",
        "balanceOf(address)": "70a08231",
        "balanceOfAt(address,uint256)": "4ee2cd7e",
        "burn(uint256)": "42966c68",
        "burnFrom(address,uint256)": "79cc6790",
        "cap()": "355274ea",
        "decimals()": "313ce567",
        "decreaseAllowance(address,uint256)": "a457c2d7",
        "disableTransactionLimit()": "b75d4145",
        "enableTransactionLimit()": "a4d98fa5",
        "getLockedBalanceLength(address)": "7945e04d",
        "getRoleAdmin(bytes32)": "248a9ca3",
        "getTotalLockedBalance(address)": "f1001f8c",
        "grantRole(bytes32,address)": "2f2ff15d",
        "hasRole(bytes32,address)": "91d14854",
        "includeTransactionsWhiteList(address)": "abc9acb7",
        "increaseAllowance(address,uint256)": "39509351",
        "isBlackListed(address)": "e47d6060",
        "lastTXBlock(address)": "a7411c92",
        "limitTransactions()": "8b811719",
        "limitTransactionsWhiteList(address)": "d0ab8e73",
        "mint(address,uint256)": "40c10f19",
        "name()": "06fdde03",
        "owner()": "8da5cb5b",
        "pause()": "8456cb59",
        "paused()": "5c975abb",
        "releaseLockedTokens(address)": "5cbee9ba",
        "removeBlackList(address[])": "9bf41135",
        "removeTransactionsWhiteList(address)": "02b63a00",
        "renounceRole(bytes32,address)": "36568abe",
        "revokeRole(bytes32,address)": "d547741f",
        "snapshot()": "9711715a",
        "supportsInterface(bytes4)": "01ffc9a7",
        "symbol()": "95d89b41",
        "timeLocks(address,uint256)": "2c479711",
        "totalSupply()": "18160ddd",
        "totalSupplyAt(uint256)": "981b24d0",
        "transfer(address,uint256)": "a9059cbb",
        "transferFrom(address,address,uint256)": "23b872dd",
        "transferLockedTokens(address,uint256,uint256,uint128,uint64,uint256)": "4cf27ce0",
        "transferOwnership(address)": "f2fde38b",
        "unpause()": "3f4ba83a"
    },
    "gasEstimates": {
        "creation": {
            "codeDepositCost": "2303600",
            "executionCost": "infinite",
            "totalCost": "infinite"
        },
        "external": {
            "BURNER_ROLE()": "285",
            "CONTRACT_MANAGER_ROLE()": "infinite",
            "DEFAULT_ADMIN_ROLE()": "306",
            "EXECUTOR_ROLE()": "308",
            "MINTER_ROLE()": "284",
            "RISK_MANAGER_ROLE()": "infinite",
            "addBlackList(address[])": "infinite",
            "allowance(address,address)": "infinite",
            "approve(address,uint256)": "24720",
            "balanceOf(address)": "2629",
            "balanceOfAt(address,uint256)": "infinite",
            "burn(uint256)": "infinite",
            "burnFrom(address,uint256)": "infinite",
            "cap()": "infinite",
            "decimals()": "333",
            "decreaseAllowance(address,uint256)": "27010",
            "disableTransactionLimit()": "infinite",
            "enableTransactionLimit()": "infinite",
            "getLockedBalanceLength(address)": "2648",
            "getRoleAdmin(bytes32)": "2512",
            "getTotalLockedBalance(address)": "infinite",
            "grantRole(bytes32,address)": "infinite",
            "hasRole(bytes32,address)": "2766",
            "includeTransactionsWhiteList(address)": "infinite",
            "increaseAllowance(address,uint256)": "27013",
            "isBlackListed(address)": "2608",
            "lastTXBlock(address)": "2564",
            "limitTransactions()": "2367",
            "limitTransactionsWhiteList(address)": "2675",
            "mint(address,uint256)": "infinite",
            "name()": "infinite",
            "owner()": "2391",
            "pause()": "infinite",
            "paused()": "2422",
            "releaseLockedTokens(address)": "infinite",
            "removeBlackList(address[])": "infinite",
            "removeTransactionsWhiteList(address)": "infinite",
            "renounceRole(bytes32,address)": "29069",
            "revokeRole(bytes32,address)": "infinite",
            "snapshot()": "infinite",
            "supportsInterface(bytes4)": "473",
            "symbol()": "infinite",
            "timeLocks(address,uint256)": "11374",
            "totalSupply()": "2449",
            "totalSupplyAt(uint256)": "infinite",
            "transfer(address,uint256)": "infinite",
            "transferFrom(address,address,uint256)": "infinite",
            "transferLockedTokens(address,uint256,uint256,uint128,uint64,uint256)": "infinite",
            "transferOwnership(address)": "30532",
            "unpause()": "infinite"
        },
        "internal": {
            "_beforeTokenTransfer(address,address,uint256)": "infinite",
            "checkTransferLimit()": "28749"
        }
    }
}